:100000000C9463000C948B000C948B000C948B006C
:100010000C948B000C948B000C948B000C9457095F
:100020000C948B000C948B000C948B000C948B0024
:100030000C948B000C948B000C948B000C948B0014
:100040000C940D090C948B000C94D9090C94B309F1
:100050000C948B000C948B000C948B000C948B00F4
:100060000C94EE070C948B00000000002400270085
:100070002A0000000008000201000003040700003D
:1000800000000000000000000000230026002900FE
:1000900000000000250028002B00020404040404D2
:1000A0000404040202020202020303030303030125
:1000B00002040810204080010204081020010204FC
:1000C000081020000B0A11241FBECFEFD8E0DEBFBE
:1000D000CDBF11E0A0E0B1E0EAE2FEE102C0059090
:1000E0000D92A438B107D9F723E0A4E8B1E001C02C
:1000F0001D92A532B207E1F710E0C3E6D0E004C0DC
:100100002197FE010E946F0DC236D107C9F70E94E8
:10011000740A0C94130F0C940000CF92DF92EF92AC
:10012000FF92CF93DF93B0910C03A0E08111AB2F2E
:1001300080910D0390E0880F991FAC014A575F4FE3
:10014000C0901203D0901303E0901403F0901503B5
:1001500030E020E0FA01C591D491E881B90190E046
:1001600080E0EB23EA130AC02F5F3F4F6C157D053B
:100170008E059F0578F36FEF7FEFCB01DF91CF9175
:10018000FF90EF90DF90CF9008952091FB01260F14
:100190003327331F21323105ECF420912102FC0179
:1001A00090E080E0243069F082E00895A091FB01A6
:1001B0002191AC0147525E4FA40FB52FB11D2C9376
:1001C0000196861798F38091FB01680F6093FB01FD
:1001D00080E0089581E00895089508950895E091DC
:1001E000D0018091CF01E81730F4F0E0E155FE4FE7
:1001F000808190E008958FEF9FEF08959091D00156
:100200008091CF012FEF3FEF981748F4E92FF0E0EE
:10021000E155FE4F208130E09F5F9093D001C901EE
:1002200008958091CF019091D001891B990B089579
:10023000CF92DF92EF92FF920F931F93CF93DF93B2
:100240007C01CB018A012091AE01222389F0EB01D0
:100250006B01C40ED51ECC15DD0569F06991D7017F
:10026000ED91FC910190F081E02DC7010995F3CF4C
:10027000642F0E94C500C801DF91CF911F910F919B
:10028000FF90EF90DF90CF900895CF93DF931F9270
:10029000CDB7DEB769832091AE012223F9F020911A
:1002A000D101203258F021E030E0FC013383228379
:1002B00090E080E00F90DF91CF9108958091D2017E
:1002C000E82FF0E0E257FE4F998190838F5F809393
:1002D000D2018093D10181E090E0ECCF61E0CE01CA
:1002E00001960E94C500F7CF833081F028F4813059
:1002F00099F08230A9F008958730A9F08830C9F0CC
:100300008430B1F4809180008F7D03C080918000A3
:100310008F7780938000089584B58F7784BD08958A
:1003200084B58F7DFBCF8091B0008F778093B00034
:1003300008958091B0008F7DF9CF1F93CF93DF9305
:10034000282F30E0F901EE58FF4F8491F901E15573
:10035000FF4FD491F901E556FF4FC491CC23A9F08A
:10036000162F81110E947401EC2FF0E0EE0FFF1F99
:10037000E057FF4FA591B4918FB7F894EC9111110C
:1003800008C0D095DE23DC938FBFDF91CF911F9102
:100390000895DE2BF8CF1092210281E08093230292
:1003A0001092220261E082E10E949D0161E083E1FE
:1003B0000E949D01E9EBF0E080818E7F8083808147
:1003C0008D7F808388E48093B80085E48093BC00AF
:1003D0000895CF93DF9391E09093D8018823B9F0EB
:1003E000C091B800D091BA008091BC008A7B809304
:1003F000BC0060E082E10E949D0160E083E10E9418
:100400009D010E94CB01D093BA00C093B800DF9148
:10041000CF910895CF93DF9390E0FC01E155FF4F1A
:10042000249185569F4FFC0184918823C9F090E068
:10043000880F991FFC01E859FF4FA591B491FC0169
:10044000E057FF4FC591D49161110DC09FB7F8944B
:100450008C91209582238C938881282328839FBFA9
:10046000DF91CF910895623051F49FB7F8943C9199
:10047000822F809583238C93E8812E2BEFCF8FB72B
:10048000F894EC912E2B2C938FBFEACFCF938091D1
:100490000001853021F08F3F59F1CF910895EAE9AD
:1004A000F0E0C491C7FDF9CF61E085E00E940A0247
:1004B000CC2309F48BC0C23009F09FC08091B100F9
:1004C000887F83608093B1008CE78093B3008FEFC7
:1004D0009FEFDC018093500290935102A09352024F
:1004E000B093530280917000826080937000D5CFEA
:1004F00085E080930001EAE9F0E0C491CF3F69F222
:10050000C13021F150F0C23009F43EC0C7FDC5CF63
:1005100061E085E00E940A02CECF14BC15BC84B510
:10052000826084BD85B5816085BDE0EAF0E0E4913C
:10053000F0E0EE0FFF1FE057FF4F85919491E4EB41
:10054000F0E0E491E0934F02C0E0AECF1092800063
:100550001092810080918100886080938100809159
:100560008100816080938100E0EAF0E0E491F0E0B6
:10057000EE0FFF1FE057FF4F85919491E4EBF0E001
:10058000E491E0934E0290CF1092B0001092B1002F
:100590008091B00082608093B0008091B100816052
:1005A0008093B100E0EAF0E0E491F0E0EE0FFF1F8D
:1005B000E057FF4F8591949190934D0280934C02A8
:1005C000E4EBF0E0E491E0934B026ECF85B5887FD9
:1005D000836085BD8DE387BD8FEF9FEFDC01809346
:1005E000580290935902A0935A02B0935B028091F3
:1005F0006E00826080936E0050CFC130E9F480912C
:100600008100887F8160809381008FE99FE09093D3
:100610008900809388008FEF9FEFDC018093540264
:1006200090935502A0935602B093570280916F00A9
:10063000826080936F0031CFC23021F0C1112DCF85
:100640008FE9C9CF8FE941CF3FB7F89480918A01F4
:1006500090918B01A0918C01B0918D0126B5A89B42
:1006600005C02F3F19F00196A11DB11D3FBFBA2F44
:10067000A92F982F8827BC01CD01620F711D811D04
:10068000911D42E0660F771F881F991F4A95D1F789
:1006900008958F929F92AF92BF92CF92DF92EF9286
:1006A000FF924B015C010E9424036B017C010E94BC
:1006B00024036C197D098E099F09683E73408105EA
:1006C0009105A8F321E0821A9108A108B10888EEEB
:1006D000C80E83E0D81EE11CF11C81149104A10412
:1006E000B10429F7FF90EF90DF90CF90BF90AF90CB
:1006F0009F908F900895CF92DF92EF92FF920F9389
:100700001F93CF93DF93CDB7DEB7C054D1400FB660
:10071000F894DEBF0FBECDBF2FB7F894809147028B
:1007200090914802A0914902B0914A022FBF409196
:100730000E0350910F0360911003709111038C010F
:100740009D01041B150B260B370BB901A801403D79
:1007500057406105710590F480911603C05CDE4F2F
:100760000FB6F894DEBF0FBECDBFDF91CF911F91C2
:100770000F91FF90EF90DF90CF90089580930E033C
:1007800090930F03A0931003B093110310920903E9
:1007900010920803109207031092060310920503AB
:1007A00062E080910A030E940A0261E070E080E04A
:1007B00090E00E94490361E080910A030E940A02CE
:1007C00060E080910A030E949D0180910B03855196
:1007D000823020F58BE291E10197F1F762E08091A0
:1007E0000A030E940A028091170390E0823091056B
:1007F00038F0880F991F880F991F05970197F1F717
:10080000F89480E00E948D006F3F7F4F8F4F9F4F85
:1008100061F410921603789480E0A0CF64E170E058
:1008200080E090E00E944903D9CF81E00E948D00D2
:100830006F3F7F4F8F4F9F4F61F38E010F5F1F4FB1
:100840006E018FEBC81A8EEFD80A780180E00E9403
:100850008D00F701608371838283938381E00E941E
:100860008D00F7016483758386839783F8E0EF0E2C
:10087000F11CEC14FD0451F7789430E020E0F8010D
:10088000C080D180E280F380448155816681778188
:10089000FFEFCF16DF06EF06FF0631F04F3F8FEF79
:1008A00058076807780719F410921603B5CFF901B5
:1008B00083E0F595E7958A95E1F7EB5FFC4F808142
:1008C000880FC416D506E606F70610F180832F5F61
:1008D0003F4F085F1F4F2832310589F640910903C9
:1008E0002091050380910603280F3327331F809141
:1008F0000703280F311D80910803820F932F911D4C
:1009000099274817190681F681E08093160326CFB0
:100910008160DCCF9091000189130BC0EAE9F0E01F
:10092000E4919FEF90930001E13049F028F0E2302C
:1009300061F060E00C949D0110926E00FACF9091EE
:100940006F009D7F90936F00F4CF909170009D7F1A
:100950009093700091E09093B0009091B100987FD7
:1009600094609093B1001092B300E3CFAF92BF9226
:10097000CF92DF92EF92FF920F931F93CF93DF936B
:100980006C017B018B01040F151FEB015E01AE189A
:10099000BF08C017D10759F06991D601ED91FC91BC
:1009A0000190F081E02DC6010995892B79F7C501E9
:1009B000DF91CF911F910F91FF90EF90DF90CF903B
:1009C000BF90AF900895FC01538D448D252F30E0EA
:1009D000842F90E0821B930B541710F0CF9608954C
:1009E00001970895FC01918D828D981761F0A28D79
:1009F000AE0FBF2FB11D5D968C91928D9F5F9F733F
:100A0000928F90E008958FEF9FEF0895FC01918DF4
:100A1000828D981731F0828DE80FF11D858D90E061
:100A200008958FEF9FEF0895FC01918D228D892FFE
:100A300090E0805C9F4F821B91098F7399270895E6
:100A400088E692E00E94140521E0892B09F420E059
:100A5000822F089580E090E0892B29F00E942005E4
:100A600081110C9400000895FC01A48DA80FB92FEA
:100A7000B11DA35ABF4F2C91848D90E001968F73C6
:100A80009927848FA689B7892C93A089B1898C91E5
:100A9000837080648C93938D848D981306C0028834
:100AA000F389E02D80818F7D80830895EF92FF92FE
:100AB0000F931F93CF93DF93EC0181E0888F9B8D81
:100AC0008C8D98131AC0E889F989808185FF15C03B
:100AD0009FB7F894EE89FF896083E889F98980815E
:100AE0008370806480839FBF81E090E0DF91CF912D
:100AF0001F910F91FF90EF900895F62E0B8D10E04F
:100B00000F5F1F4F0F731127E02E8C8D8E110CC0BD
:100B10000FB607FCFACFE889F989808185FFF5CF08
:100B2000CE010E943405F1CFEB8DEC0FFD2FF11DAE
:100B3000E35AFF4FF0829FB7F8940B8FEA89FB8945
:100B400080818062CFCFCF93DF93EC01888D8823A3
:100B5000B9F0AA89BB89E889F9898C9185FD03C020
:100B6000808186FD0DC00FB607FCF7CF8C9185FF05
:100B7000F2CF808185FFEDCFCE010E943405E9CF11
:100B8000DF91CF910895CF92DF92EF92FF920F9372
:100B90001F93CF93DF93FC01C48121E02093AE012A
:100BA000C09384011092D2011092D1018485682BE8
:100BB0008CE592E00E944501D091D101D13208F03C
:100BC00092C00E9424036B017C018091210281115B
:100BD00065C082E08093210281E0809323028FEF41
:100BE0008093200210924502D0934402AEE8B1E017
:100BF000E4E2F2E080E0D81385C0109246028091D2
:100C00004602CC0FC82BC09346028091220281304D
:100C100009F07CC0109222020E9424036B017C0127
:100C2000809146028093BB008091D4019091D501C0
:100C3000A091D601B091D701892B8A2B8B2B99F0EB
:100C40000E9424030091D4011091D5012091D60176
:100C50003091D7016C197D098E099F090617170776
:100C600028073907E0F18091BC0083FDD9CF85ECDE
:100C70008093BC000E9424036B017C0180912102BF
:100C8000823009F445C0809120028F3F61F180914C
:100C90002002803241F18091200225C08091D40150
:100CA0009091D501A091D601B091D701892B8A2BC3
:100CB0008B2B09F48ACF0E9424030091D401109158
:100CC000D5012091D6013091D7016C197D098E098B
:100CD0009F09061717072807390708F076CF809174
:100CE000D3010E94E9011092D2011092D101109219
:100CF000AE01DF91CF911F910F91FF90EF90DF90A8
:100D0000CF9008959D9191938F5F75CF85EEB0CF71
:100D10008091D4019091D501A091D601B091D701D5
:100D2000892B8A2B8B2B09F4A9CF0E9424030091D5
:100D3000D4011091D5012091D6013091D7016C19C1
:100D40007D098E099F09061717072807390708F03C
:100D500095CFC5CF089590E080E008950F931F933D
:100D6000CF938C01C62F0E94C3056C2F6460C8010D
:100D70000E94C3056C2F6B7FC8010E94C30583ECE2
:100D800090E00197F1F7CF911F910F9108950F9384
:100D90001F93CF93DF938C01D62FC42F607F642BDA
:100DA0000E94AE0680E1D89FB00111246C2BC801CF
:100DB000DF91CF911F910F910C94AE06CF93DF93EB
:100DC000CDB7DEB728970FB6F894DEBF0FBECDBF04
:100DD00098E0E1E0F1E0DE01119601900D929A9524
:100DE000E1F790912003961708F46FEF262F30E07B
:100DF000220F331F41E050E04C0F5D1F240F351FC1
:100E0000F9016081680F606840E088E193E028960E
:100E10000FB6F894DEBF0FBECDBFDF91CF910C941B
:100E2000C70641E00E94C70681E090E0089585ED85
:100E30008093BC008091D4019091D501A091D601FE
:100E4000B091D7010796A11DB11D23E0B695A795D6
:100E5000979587952A95D1F72091BC0024FD03C072
:100E60001092210208954091D4015091D5016091D2
:100E7000D6017091D701452B462B472B69F300977C
:100E8000A105B10541F02AE22A95F1F700C00197CA
:100E9000A109B109E1CF8091D3010C94E901FB01D3
:100EA00001900020E9F73197AF01461B570BDC0199
:100EB000ED91FC910280F381E02D09948F929F9235
:100EC000AF92BF92CF92DF92EF92FF92CF93DF93D8
:100ED000CDB7DEB7A1970FB6F894DEBF0FBECDBF7A
:100EE0006C01990FEE08FF08F7FE40C041E06DE28B
:100EF00088E193E00E94C70622273327A9012C1915
:100F00003D094E095F0919A2CE0181967C019AE044
:100F1000892E912CA12CB12CCA01B901A5019401F3
:100F20000E944D0D605DF70162937F01211531052F
:100F30004105510589F790E080E0309729F0BF0125
:100F400088E193E00E944F070196A1960FB6F894AE
:100F5000DEBF0FBECDBFDF91CF91FF90EF90DF904E
:100F6000CF90BF90AF909F908F900895A70196016A
:100F700019A2CE0181967C018AE0882E912CA12CA9
:100F8000B12CCA01B901A50194010E944D0D605D0B
:100F9000F70162937F01211531054105510589F75C
:100FA00090E080E0309789F2BF0188E193E00E94F1
:100FB0004F07CBCF0F931F93CF93DF93EC010E948A
:100FC0004F078C0169E371E0CE010E944F07800F4B
:100FD000911FDF91CF911F910F9108951F920F9252
:100FE0000FB60F9211242F933F934F935F936F93FC
:100FF0007F938F939F93AF93BF93EF93FF938091D2
:10100000B900887F803609F44AC0F0F5883209F4C7
:10101000A7C018F5803109F49BC0B8F4882309F4FF
:10102000F9C0883009F494C0FF91EF91BF91AF915E
:101030009F918F917F916F915F914F913F912F91F0
:101040000F900FBE0F901F901895883109F488C03B
:10105000803251F78093200214C0803409F49DC07F
:1010600040F48033B9F38833F9F68093200285EC9D
:10107000B0C0803509F485C0883509F496C088343D
:1010800099F60E941707D0CF883909F48CC038F53B
:10109000883729F050F4883611F0803729F683E03C
:1010A0008093210210921F0257C0883809F47BC038
:1010B000803919F0803809F0B7CF80911F02803253
:1010C00008F071C0E0911F0281E08E0F80931F0233
:1010D0008091BB00F0E0E150FE4F80833DC0803B3B
:1010E00039F0E0F4803A09F479C0883A09F09CCFED
:1010F00084E0809321021092FC011092FB01E091A8
:10110000F901F091FA0109958091FB0181110FC05D
:1011100081E08093FB011092D90109C0803C09F461
:10112000A6CF883C09F4A3CF883B09F07DCFE0919E
:10113000FC0181E08E0F8093FC01F0E0E752FE4F4E
:1011400080818093BB009091FC018091FB0129C0BC
:10115000809146028093BB0085EC8093BC0064CFF5
:101160009091450280914402981758F5E09145020C
:1011700081E08E0F80934502F0E0EC5DFD4F8081B1
:10118000E9CFE091450281E08E0F80934502809186
:10119000BB00F0E0EC5DFD4F8083909145028091B3
:1011A00044029817C8F285E8D8CFE091450281E063
:1011B0008E0F809345028091BB00F0E0EC5DFD4F07
:1011C00080838091230281115CCF81E08093220291
:1011D00084EA8093BC001092210226CF85EC809394
:1011E000BC001092210280911F02803230F4E09105
:1011F0001F02F0E0E150FE4F108260911F0270E08C
:10120000E091FD01F091FE018FEF91E009951092C0
:101210001F020ACF1092200234CF1F920F920FB6F6
:101220000F9211242F933F938F939F93AF93BF936C
:101230008091470290914802A0914902B0914A02E0
:101240003091890123E0230F2D3758F50196A11D18
:10125000B11D209389018093470290934802A09387
:101260004902B0934A0280918A0190918B01A0912A
:101270008C01B0918D010196A11DB11D80938A0151
:1012800090938B01A0938C01B0938D01BF91AF918E
:101290009F918F913F912F910F900FBE0F901F90B4
:1012A000189526E8230F0296A11DB11DD2CF1F92DB
:1012B0000F920FB60F9211242F933F934F935F938A
:1012C0006F937F938F939F93AF93BF93EF93FF930E
:1012D0008091500290915102A0915202B09153021C
:1012E000892B8A2B8B2BD1F190914B02E0914C02F0
:1012F000F0914D02808189278083809150029091E6
:101300005102A0915202B0915302181619061A0602
:101310001B069CF48091500290915102A0915202C0
:10132000B09153020197A109B109809350029093A3
:101330005102A0935202B0935302FF91EF91BF91DB
:10134000AF919F918F917F916F915F914F913F915D
:101350002F910F900FBE0F901F9018958091000154
:101360000E948A04EACF1F920F920FB60F921124A7
:101370002F933F934F935F936F937F938F939F939D
:10138000AF93BF93EF93FF9388E692E00E943405FA
:10139000FF91EF91BF91AF919F918F917F916F914D
:1013A0005F914F913F912F910F900FBE0F901F9023
:1013B00018951F920F920FB60F9211242F938F93AF
:1013C0009F93EF93FF93E0917802F09179028081EF
:1013D000E0917E02F0917F0282FD1BC0908180919E
:1013E00081028F5F8F7320918202821741F0E0911A
:1013F0008102F0E0E859FD4F958F80938102FF91C3
:10140000EF919F918F912F910F900FBE0F901F9092
:1014100018958081F4CFECE5F2E01382128288EE19
:1014200093E0A0E0B0E084839583A683B7832DE0AA
:1014300031E031832083E8E6F2E013821282848374
:101440009583A683B7838FE191E09183808385ECB8
:1014500090E09587848784EC90E09787868780EC7E
:1014600090E0918B808B81EC90E0938B828B82EC6F
:1014700090E0958B848B86EC90E0978B868B118E19
:10148000128E138E148EE8E1F3E01382128281E350
:1014900091E091838083118687E2848380E1828753
:1014A00082E083871486A5E0B3E087E015968C93ED
:1014B00015978BE016968C931697E6EBF0E0E49187
:1014C0001796EC931797E2EAF0E0E4911896EC9304
:1014D000189740E85EE360E070E01D964D935D93E1
:1014E0006D937C9350970895789484B5826084BD01
:1014F00084B5816084BD85B5826085BD85B5816018
:1015000085BD80916E00816080936E001092810095
:101510008091810082608093810080918100816050
:101520008093810080918000816080938000809111
:10153000B10084608093B1008091B000816080939D
:10154000B00080917A00846080937A0080917A0064
:10155000826080937A0080917A00816080937A0023
:1015600080917A00806880937A001092C10060E0D8
:1015700088E00E940A0260E08FE00E940A0261E0B7
:1015800085E00E940A0261E083E00E940A0261E0B5
:1015900082E00E940A0261E085E00E940A0261E0A6
:1015A00084E00E940A0261E089E00E940A02E09160
:1015B0007802F091790282E08083E0917402F091E8
:1015C00075021082E0917602F09177028FEC8083B1
:1015D00010928002E0917C02F0917D0286E080838F
:1015E000E0917A02F0917B02808180618083E091BA
:1015F0007A02F0917B02808188608083E0917A0298
:10160000F0917B02808180688083E0917A02F09182
:101610007B0280818F7D80836CE371E088E692E0BD
:101620000E94DA0762E080910A030E940A022FB743
:10163000F8948091470290914802A0914902B0919C
:101640004A022FBF805D9740A109B10980930E0324
:1016500090930F03A0931003B093110387E380933B
:1016600017031092D0011092CF011092D201109264
:10167000D1010E94CB018CEE90E09093FA0180930F
:10168000F9018DEE90E09093FE018093FD011092A0
:101690001D0380912303823018F098E090931D037E
:1016A0008093200362E370E080E090E00E944903B1
:1016B0006091240388E193E00E94C30568EE73E023
:1016C00080E090E00E94490360E388E193E00E949B
:1016D000AE06CBE4D6E4CE010197F1F760E388E1F2
:1016E00093E00E94AE062197F1F760E388E193E072
:1016F0000E94AE0683E592E00197F1F760E288E18F
:1017000093E00E94AE0660911D03606240E088E1B4
:1017100093E00E94C70684E080931E0340E06CE0E3
:1017200088E193E00E94C70640E061E088E193E031
:101730000E94C7068BE39FE10197F1F78091210397
:10174000882321F060E080E00E94DE0682E0809342
:101750001F0340E066E088E193E00E94C70640E096
:1017600062E088E193E00E94C7068BE39FE1019766
:10177000F1F788E08093240360E088E193E00E9421
:10178000C305CAE7D0E007EB10E023EAE22E20E031
:10179000F22E31E4A32E40E0C42E40E0D42E61E0CE
:1017A00082E00E949D010E947B03882349F0809182
:1017B0000B038B3028F08D3040F085518230C0F122
:1017C00060E070E080EC9FE71CC06091060370E071
:1017D00090E080E00E941A0E2DEC3CEC4CEC5DE3B6
:1017E0000E94A60E2B013C016091050370E090E081
:1017F00080E00E941A0E9B01AC01C301B2010E945D
:10180000760D0E94E20D70938801609387010E941B
:101810007B03882341F080910B038C3009F41DC1B8
:10182000C8F48B3081F160E070E080EC9FE753C03A
:10183000609105037091060376276727762790E06D
:1018400080E00E94180E2DEC3CEC4CEC5DE30E9415
:10185000A60ED7CF8551823030F7B09007036B2D9D
:1018600070E0762F662766277F7780910803682BC4
:1018700090E080E00E94180E2DEC3CEC4CEC5DE317
:101880000E94A60E06C16091070370E090E080E020
:101890000E94180E2B013C01B0900803B7FE0AC04D
:1018A000AC019B0160E070E080E89FEB0E94750D49
:1018B0002B013C016B2D6F7070E090E080E00E9486
:1018C0001A0E2DEC3CEC4CEC5DE30E94A60EA3013D
:1018D00092010E94760D0E94E20D70938601609342
:1018E000850160E080E00E94DE0661E671E088E14B
:1018F00093E00E94DA0761E080E00E94DE0663E781
:1019000071E088E193E00E944F07809185019091FA
:1019100086010E945E0766E771E088E193E00E941D
:101920004F0761E086E00E94DE0668E771E088E12B
:1019300093E00E94DA0761E08BE00E94DE066EE72A
:1019400071E088E193E00E944F07809187019091B8
:1019500088010E945E0761E871E088E193E00E94DF
:101960004F0764E670E080E090E00E944903FE01CA
:101970008491F801B490F7019490992099F1811124
:101980000E947401E92DF0E0EE0FFF1FEA57FF4FB0
:10199000A591B4918C91B82229F160E082E00E9477
:1019A0009D0161E083E00E949D010E94460268EB78
:1019B0007BE080E090E00E94490385E00E948A0479
:1019C00060E083E00E949D0161E089E00E949D014A
:1019D00068E873E180E090E00E94490360E089E0FC
:1019E0000E949D01A0927C0080917A008064809387
:1019F0007A0080917A0086FDFCCF809178009091EA
:101A000079008B3F9105BCF060E082E00E949D016F
:101A10000E94460261E084E00E949D0168EB7BE049
:101A200080E090E00E94490385E00E948A0460E023
:101A300084E00E949D0168EE73E080E090E00E94E7
:101A40004903C114D10409F4AACE0E9420058823B9
:101A500009F4A5CE0E940000A2CEB09007036B2D22
:101A600070E090E080E00E94180E2B013C01609134
:101A700008036F7070E090E080E00E941A0E2DEC79
:101A80003CEC4CEC5DE30E94A60EA30192010E9487
:101A9000760DB7FE20CF90581ECFA1E21A2EAA1BBA
:101AA000BB1BFD010DC0AA1FBB1FEE1FFF1FA2170E
:101AB000B307E407F50720F0A21BB30BE40BF50B0B
:101AC000661F771F881F991F1A9469F76095709594
:101AD000809590959B01AC01BD01CF010895EE0F5B
:101AE000FF1F0590F491E02D09945058BB27AA27B9
:101AF0000E948D0D0C946C0E0E945E0E38F00E94B8
:101B0000650E20F039F49F3F19F426F40C945B0E17
:101B10000EF4E095E7FB0C94550EE92F0E947D0E24
:101B200058F3BA17620773078407950720F079F412
:101B3000A6F50C949F0E0EF4E0950B2EBA2FA02D57
:101B40000B01B90190010C01CA01A0011124FF276A
:101B5000591B99F0593F50F4503E68F11A16F04065
:101B6000A22F232F342F4427585FF3CF4695379564
:101B70002795A795F0405395C9F77EF41F16BA0B29
:101B8000620B730B840BBAF09150A1F0FF0FBB1FD7
:101B9000661F771F881FC2F70EC0BA0F621F731F20
:101BA000841F48F4879577956795B795F7959E3F7D
:101BB00008F0B0CF9395880F08F09927EE0F97950E
:101BC000879508950E94E90D6894B1110C94A00EB8
:101BD00008950E94850E88F09F5798F0B92F992795
:101BE000B751B0F0E1F0660F771F881F991F1AF008
:101BF000BA95C9F714C0B13091F00E949F0EB1E0C0
:101C000008950C949F0E672F782F8827B85F39F0BE
:101C1000B93FCCF3869577956795B395D9F73EF4A0
:101C200090958095709561957F4F8F4F9F4F089548
:101C3000E89409C097FB3EF4909580957095619566
:101C40007F4F8F4F9F4F9923A9F0F92F96E9BB271C
:101C50009395F695879577956795B795F111F8CF98
:101C6000FAF4BB0F11F460FF1BC06F5F7F4F8F4F03
:101C70009F4F16C0882311F096E911C0772321F0F9
:101C80009EE8872F762F05C0662371F096E8862F91
:101C900070E060E02AF09A95660F771F881FDAF7E8
:101CA000880F9695879597F9089597F99F6780E82B
:101CB00070E060E008959FEF80EC089500240A949E
:101CC0001616170618060906089500240A94121617
:101CD0001306140605060895092E0394000C11F44A
:101CE000882352F0BB0F40F4BF2B11F460FF04C0F7
:101CF0006F5F7F4F8F4F9F4F089557FD9058440F50
:101D0000551F59F05F3F71F04795880F97FB991F5A
:101D100061F09F3F79F08795089512161306140617
:101D2000551FF2CF4695F1DF08C0161617061806A4
:101D3000991FF1CF86957105610508940895E8947F
:101D4000BB2766277727CB0197F908950E94B90E24
:101D50000C946C0E0E945E0E38F00E94650E20F00E
:101D6000952311F00C94550E0C945B0E11240C94D9
:101D7000A00E0E947D0E70F3959FC1F3950F50E069
:101D8000551F629FF001729FBB27F00DB11D639F2D
:101D9000AA27F00DB11DAA1F649F6627B00DA11DD3
:101DA000661F829F2227B00DA11D621F739FB00D79
:101DB000A11D621F839FA00D611D221F749F3327E9
:101DC000A00D611D231F849F600D211D822F762F82
:101DD0006A2F11249F5750409AF0F1F088234AF05F
:101DE000EE0FFF1FBB1F661F771F881F91505040CB
:101DF000A9F79E3F510580F00C94550E0C94A00E4F
:101E00005F3FE4F3983ED4F3869577956795B79551
:101E1000F795E7959F5FC1F7FE2B880F911D96956B
:0A1E2000879597F90895F894FFCF15
:101E2A00FF000040001400540000000000450118A3
:101E3A0001AB06EE001101FE00EF000000000056A3
:101E4A0005B604E304A3051405F204060500000020
:101E5A00001107B604AB06AA060D0A0054656D7098
:101E6A006572617475726520616E642048756D696A
:101E7A00646974792053656E736F72205465737444
:101E8A0000204E6F772054656D70657261747572AB
:101E9A00652000543A004300554E414C2000483A10
:041EAA00002500000F
:00000001FF
